:020000040800F2
:10000000781700203902000883290008FD25000820
:100010008129000817130008492C0008000000007F
:10002000000000000000000000000000A101000826
:100030001913000800000000E501000885290008E8
:10004000530200085302000853020008530200083C
:10005000530200085302000853020008530200082C
:10006000530200085302000853020008530200081C
:10007000530200085302000853020008530200080C
:100080005302000853020008B5120008530200088A
:1000900053020008530200085302000853020008EC
:1000A00053020008530200085302000853020008DC
:1000B00053020008530200082D2A000853020008CA
:1000C00053020008530200085302000853020008BC
:1000D00053020008530200085302000853020008AC
:1000E00053020008530200085302000800F002F80F
:1000F00000F047F80AA090E8000C82448344AAF17B
:100100000107DA4501D100F03CF8AFF2090EBAE878
:100110000F0013F0010F18BFFB1A43F0010318473B
:10012000EC3A00000C3B0000103A24BF78C878C1BC
:10013000FAD8520724BF30C830C144BF04680C60ED
:10014000704700000023002400250026103A28BF35
:1001500078C1FBD8520728BF30C148BF0B60704739
:10016000662903F0A884002070471FB500F064FBE7
:1001700004000020002103F011FCE0601FBD10B559
:1001800010BD00F059FC1146FFF7EFFF02F0DCFD57
:1001900000F077FC03B4FFF7F2FF03BC00F0BAFCF9
:1001A000224B19680868B0E8F00F80F30988BFF3A4
:1001B0006F8F4FF0000080F311884EF00D0E7047E6
:1001C0000000000006480068006880F3088862B6F6
:1001D00061B6BFF34F8FBFF36F8F00DF00BF00BF6B
:1001E00008ED00E0EFF30980BFF36F8F0F4B1A6843
:1001F00020E9F00F106008B54FF0500080F311882F
:10020000BFF34F8FBFF36F8F03F078F94FF000000B
:1002100080F31188BDE8084019680868B0E8F00F5D
:1002200080F30988BFF36F8F704700BF5400002030
:10023000EFF30580704700000948804709480047F0
:10024000FEE7FEE7FEE7FEE7FEE7FEE7FEE7FEE786
:10025000FEE7FEE704480549054A064B70470000E3
:10026000292A0008ED0000087811002078170020E6
:1002700078130020781300200FB41CB50C0007AAD7
:10028000009001D02044401E074B7B4469460190FA
:10029000069800F0B0FA002C03D06946002000F068
:1002A000BDFA1CBC5DF814FB990500002DE9F04176
:1002B0000E460446002020622046E168884730B39D
:1002C000252805D0D4E901219047206A401CF2E797
:1002D000E168204600278847050018D0A5F14100B5
:1002E000192802D820354FF40067324629462046A7
:1002F0002760FFF735FF40B1012804D0F61D26F036
:1003000007060836D8E7361DD6E72846DAE7206A1A
:10031000BDE8F08110B5203AC0F00B80B1E818506C
:10032000203AA0E81850B1E81850A0E81850BFF4DF
:10033000F5AF5FEA027C24BFB1E81850A0E818507E
:1003400044BF18C918C0BDE810405FEA827C24BFD2
:1003500051F8043B40F8043B08BF7047D20728BF60
:1003600031F8023B48BF11F8012B28BF20F8023BAF
:1003700048BF00F8012B70474FF0000200B513464C
:1003800094469646203922BFA0E80C50A0E80C50B5
:10039000B1F12001BFF4F7AF090728BFA0E80C5066
:1003A00048BF0CC05DF804EB890028BF40F8042B5F
:1003B00008BF704748BF20F8022B11F0804F18BFCC
:1003C00000F8012B704770477047704770472DE960
:1003D000FF4F0C461E464FF0FF378BB0D2E90001AD
:1003E000DDF860800A908A46C1F30A5505B93D469A
:1003F000002108464FF00000BAF1000F00F4400061
:1004000005DA00EB80004FF4400101EA50004FEAAA
:100410009059B9F1010F00DDB9460A9850EA4A0037
:100420000ED044F61050A5F2FF3545432F14B8F115
:10043000000F1ED07542291E1EDDC9F100021CE00E
:10044000B8F1010F4FF0000001D0302103E0F2437A
:1004500005E02154401CB042FBDB30460022002165
:1004600021540B99C1F80880C1E900200FB0BDE804
:10047000F08FBD1B6D1CDEE74A4600DA694206A814
:1004800000F064FA06AB93E8070003AB83E80700CB
:1004900050460A9900F045FB8DE80700A0F5005092
:1004A0001F3800900398002D0ADD42F21F014A46D2
:1004B0000844002303A90390684600F0AEFD09E05C
:1004C000A0F500504A461F38002303A90390684650
:1004D00000F0B8FD8DE807000004000C03D04FF0D9
:1004E000FF30410800E01046B8F1000F03D00022B1
:1004F000009215461EE0751E05D400F0A1F93032B9
:1005000062556D1EF9D5B3460122084302D0002280
:100510007F1C04E02078302801D100227F1E002AB1
:10052000099784D01DE0112D07DA00F089F93032E7
:1005300062556D1C50EA0102F5D1084302D00098C3
:10054000C8B10EE00021681E05E0235C625C6354C4
:100550002254401E491C8142F7DBAB46A81B401EBB
:100560000990002004F80B000B98099AC0F8088045
:10057000C0E9002B7AE711264FF0000857E72DE974
:10058000F04F88460446D21D22F0070191B0D1E910
:100590000001CDE90A0102F058FB02460B98C00F9A
:1005A00001D02D2007E02068810701D52B2002E033
:1005B000202101EAC000032A099001D0072A05DBA7
:1005C00003464146204600F081F90BE12078800681
:1005D00001D5E06900E00620B8F1650F814606D03C
:1005E000B8F1660F18D0B8F1670F70D131E0002074
:1005F000B9F1110F009001DB112301E009F10103B2
:100600000AAA01A90CA8FFF7E2FEDDE90C7000269A
:1006100009F10105834647E001204B4600904FF069
:1006200000470AAA01A90CA8FFF7D1FEDDE90DB029
:100630000C995D46002610B909F101000D18B9EBBF
:10064000050003D4C0F1FF3609F10105A5EB09004F
:100650002BE0B9F1010F01DA4FF001090020B9F1E7
:10066000110F0090484601DD112300E003460AAA5D
:1006700001A90CA8FFF7ABFEDDE90C704D46002682
:100680008346207800070AD4AB4500DA5D4601A80E
:10069000012D04DD411911F8011C302907D04F4507
:1006A00002DA17F1040F04DA012082460FE06D1E12
:1006B000EEE7002F02DCED1B3E4403E0781CA8426D
:1006C00000DD7D1CB81B00F1010A4FF000472078C7
:1006D000000703D4AA4501DB4FF0FF3A0021B7F130
:1006E000004F0DF143088DF8431024D002202B2336
:1006F000002F01DA7F422D230A21021EA0F1010002
:1007000000DC5FB197FBF1FC97FBF1F201FB1C7C75
:1007100017460CF1300C08F801CDEEE7A8F1010006
:1007200003702188090501D5452100E06521A0F16C
:10073000010800F8011C09980FA9A1EB0807FF1D8B
:1007400000B10120411901EBEA70A1693844081A8F
:10075000401EA0612078C00602D42046AFF300807E
:10076000099828B1D4E901219047206A401C2062F1
:100770002078C00622D52046AFF300801EE0002E70
:1007800004DBB34502DD01A8805D00E03020D4E940
:1007900001219047206A401C2062761CAAF10100CA
:1007A0005FEA000A0AD100F047F8C0680168405CBF
:1007B000D4E901219047206A401C2062281EA5F13F
:1007C0000105DCDC07E0D4E9012118F8010B9047B2
:1007D000206A401C2062381EA7F10107F3DC204686
:1007E000AFF30080032011B041E6000001694A1C0C
:1007F00002610878704700B58FB0CDE90131002162
:10080000059105497944CDE9031011466846FFF783
:100810004DFD0FB000BD0000E5FFFFFF0A6802F8C4
:10082000010B0A607047D1E900239A4202D2531C9F
:100830000B601070704700000048704734110020B2
:1008400030B5B0F10A024FEA900E71F100034EEAA2
:10085000817EB0EB0E0061EB91014FEA101E4EEA73
:10086000017E10EB0E0041EB11114FEA102E4EEA03
:10087000016E10EB0E0041EB11214FEA104E4EEAD3
:10088000014E10EB0E0041EB1141401841F1000107
:100890004FEAD00040EA41704FEAD10110EB8005E9
:1008A0004FEA810444EA907444EB01046D1944EB6F
:1008B0000404521BA3414FF0000348BF0A3200D585
:1008C00030BD401C41F1000130BD00002DE9F04178
:1008D0001F46044603260168072A01F4006004DB72
:1008E00008B116A505E016A503E008B115A500E0BE
:1008F00015A521F010002060A069C01EA0610FB1F5
:10090000401EA0612046AFF300804FB1D4E9012121
:1009100038469047206A401C2062C01C206206E0D6
:10092000206AFAE7D4E9012115F8010B9047761EF9
:10093000F8D22046AFF30080BDE8F0814E414E0072
:100940006E616E00494E4600696E66002DE9F04703
:10095000814616468AB0354878440DC88DE80D00AA
:1009600032487844801C03AC0DC884E80D0041F681
:100970009B300844372190FBF1F290FBF1F5A5F193
:10098000800501FB12041B3C02D56442012000E0FB
:100990000020DFF898A080460027FA44AAF1BE0A9A
:1009A0000EE0E0070AD03246684607EB4701012314
:1009B0000AEB810100F046FB8DE8070064107F1C04
:1009C000002CEED1194F7F44AE3F19E0E80715D057
:1009D00007EB04100DF1180A90E80E008AE80E00EB
:1009E000C068F04201D1981908903246012306A947
:1009F00003A800F027FB03AB83E807006D10641C1D
:100A0000002DE3D14FF0010332466946B8F1000FE3
:100A100003A802D000F001FB01E000F013FBC9E9DC
:100A20000001C9F808200AB0BDE8F087783200005C
:100A300000487047141100207546FFF7F9FFAE46D5
:100A400005006946534620F00700854618B020B5DA
:100A5000FFF700FCBDE820404FF000064FF0000714
:100A60004FF000084FF0000B21F00701AC46ACE856
:100A7000C009ACE8C009ACE8C009ACE8C0098D46C3
:100A8000704710B50446AFF300802046BDE8104023
:100A9000FFF780BB4FF0013C50F8042B51F8043BAA
:100AA0009A4221D1A2EB0C03934313EACC1317D142
:100AB00050F8042B51F8043B9A4215D1A2EB0C03D9
:100AC000934313EACC130BD150F8042B51F8043B99
:100AD0009A4209D1A2EB0C03934313EACC13DBD067
:100AE0004FF00000704700BFD01A01BAB1FA81F18F
:100AF00001F0180122FA01F0CB40C1F12001DBB274
:100B0000C0B2C01A2CFA01F3D11A914311EAC311F1
:100B1000E6D1704701491820ABBEFEE7260002006F
:100B200070475FEA400C08BF91F0000F4FEA8C233A
:100B30004FEAC12243EA51514FEA1C5018BF00F559
:100B4000F0404FEA300018BF41F000415FEA6C5CB2
:100B500000F02980BCF1FF3F08BF40F080407047A3
:100B6000130C06BF12044FF0100C4FF0000C130EC4
:100B700004BF12020CF1080C130F04BF12010CF198
:100B8000040C930F04BF92000CF1020CD30F04BFAE
:100B900052000CF1010C11464FF00002A0F11F00B1
:100BA000A0EB0C00704711F0004F08BF704731F008
:100BB00000413FF4D5AF0B0C06BF09044FF0100CF9
:100BC0004FF0000C0B0E04BF09020CF1080C0B0FC8
:100BD00004BF09010CF1040C8B0F04BF89000CF158
:100BE000020CCB0F04BF49000CF1010CCCF1200327
:100BF000A0EB0C0022FA03F302FA0CF241EA030123
:100C000000F10100704720F07F4C80EA030023F0E0
:100C10007F47ACEB070303F57C5300F0004003F182
:100C2000FF032DE980494FEA154B09B44FEA1443FD
:100C300025EA0B4E24EA03480FF2042606EB13279D
:100C400049083E785FEA320203FB0667C7F50007F2
:100C500007FB06F64FEA54374FEAD64606F102067E
:100C600007FB066CCCF1005C4FEA1C472CEA074CF2
:100C700007FB06F40CFB06F504EB15464FEA961647
:100C800034BF00204FF000404FEAD13706FB07FC8D
:100C90004FEA1C4C0CFB0BF7D21B03FB0CF761EB70
:100CA00007010CFB0EF7B0EB074072EB17420CFB91
:100CB00008F734BFA2EB0742B2EB074261EB1741E2
:100CC0004FEA0C444FEA910706FB07FC4FEA1C4C25
:100CD0000CFB0BF7B0EBC74072EB573203FB0CF782
:100CE00034BFA2EBC742B2EBC74261EB57310CFBFA
:100CF0000EF7B0EBC70072EB57720CFB08F734BF6E
:100D0000A2EBC702B2EBC70261EB5771039F4FEA38
:100D1000816141EA921104EBCC044FEAD1374FEAEA
:100D2000826206FB07FC42EA90124FEA80604FEABB
:100D30001C4C0CFB0BF7D21B03FB0CF761EB070100
:100D40000CFB0EF7B0EB074072EB17420CFB08F7F9
:100D500034BFA2EB0742B2EB074261EB17414FEA07
:100D60008C554FEA910704EB9C2406FB07FC4FEAE5
:100D70001C4C0CFB0BF7B0EBC74072EB573203FB7C
:100D80000CF734BFA2EBC742B2EBC74261EB57315D
:100D90000CFB0EF7B0EBC70072EB57720CFB08F7B9
:100DA00034BFA2EBC702B2EBC70261EB577115EB80
:100DB0004C254FEA816141EA92114FEA82624FEA83
:100DC000D13742EA901206FB07FC44F100044FEAD7
:100DD00080604FEA1C4C0CFB0BF7D21B03FB0CF79B
:100DE00061EB07010CFB0EF7B0EB074072EB17420B
:100DF0000CFB08F734BFA2EB0742B2EB074261EBF2
:100E0000174115EB1C154FEA813141EA92414FEA37
:100E1000823242EA90424FEA80304FEA0C7644F147
:100E2000000448EA03434EEA0B484FF0000EB2EBD1
:100E3000080C71EB030724BF624639464EEB0E0ED9
:100E40004FF0000B0018524149414BEB0B0BB2EB3A
:100E5000080C71EB03077BF1000B24BF6246394697
:100E60004EEB0E0E4FF0000B0018524149414BEB78
:100E70000B0BB2EB080C71EB03077BF1000B24BFEB
:100E8000624639464EEB0E0E51EA020718BF46F095
:100E9000010616EB0E7655F1000254F1000103D560
:100EA000BDE88901BDE80088BDE88901BDE80048CA
:100EB000B619524141EB0101A3F101037047808053
:100EC0007F7E7D7C7B7A79787776767574737271A4
:100ED00071706F6E6E6D6C6C6B6A6A69686867665C
:100EE00066656464636362616160605F5F5E5E5DEE
:100EF0005D5C5C5B5B5A5A59595858575756565562
:100F000055555454535352525251515050504F4FC3
:100F10004F4E4E4D4D4D4C4C4C4B4B4B4A4A4A4913
:100F20004949484848474747474646464545454456
:100F30004444444343434342424242414141002BE3
:100F40009C4630D477002BD01CB54FEA370703B44A
:100F50004FF010004FF01001BAF1000F06D0BCF1B5
:100F6000000FDCBF40F0080040F008014FF0000027
:100F70000FBCBDE810400BF1010BBBF1010F08BF26
:100F80005FEA170722BF12F1010211F101014FF0D0
:100F9000004143F1000300F0004043EA00007047C5
:100FA000F9D35708D0E746EA064613F1400F4FEA57
:100FB00016461FDD13F1200FDFBF16430A4600213E
:100FC00020335B42BED0C3F1200746EA064602FA50
:100FD00007F74FEA164646EA0706C3F1200722FA4A
:100FE00003F201FA07F721FA03F14FF0000342EA96
:100FF0000702A7E746EA020646EA06464FEA164611
:1010000046EA0106BCBF46EA0646360C4FF000032E
:101010004FF000024FF0000194E72DE9804C9A4612
:10102000934670B491E8380007C831EA400C48BFD5
:1010300034EA430C03D5FFF7E6FDFFF780FFF0BC71
:10104000BDE8008C2DE9804C9A46934670B491E837
:10105000380007C810F0804F08BF13F0804F03D14D
:1010600000F005F8FFF76BFFF0BCBDE8008C20F046
:101070007F4780EA030023F07F4C07EB0C03A3F5C6
:101080007C5300F00040A3F1FE0392F0000F00F04B
:10109000B38095F0000F00F077802DE901494FEA09
:1010A00011404FEA144621EA004800FB06FC24EAFE
:1010B000064708FB06F607FB08F800FB07F718EBE6
:1010C00006484CEB164C4FEA124B18EB07484FEA18
:1010D00015464CEB174022EA0B4E0BFB06FC25EAAB
:1010E00006470EFB06F607FB0EFE0BFB07F71EEB93
:1010F000064E4CEB164C4FF000061EEB074E4CEB29
:10110000174B18EB0B0840F1000018EB0E0B58EBD7
:10111000000840F100008F1A4FF000013CBFC943A6
:10112000661B14BFB5EB040C00213CBFC943F61B82
:101130004FEA17444EEA8E0E27EA04454FEA1C4751
:1011400004FB07622CEA074C05FB07F70CFB05F6CE
:1011500004FB0CFC16EB074642EB174216EB0C4661
:1011600042EB1C421BEB060658EB0202414146EAE9
:101170009E0601D5BDE80189B619524141EB010136
:10118000A3F10103BDE801894FEA14454FEA114775
:1011900024EA054621EA074C05FB07F406FB07F79E
:1011A0000CFB06F105FB0CFC11EB074144EB17446B
:1011B0004FEA124711EB0C4144EB1C4422EA074C66
:1011C00005FB07F206FB07F70CFB06F605FB0CFC1C
:1011D00016EB074642EB174216EB0C4642EB1C455A
:1011E0006A1854F1000148BF7047B619524141EBEB
:1011F0000101A3F10103704795F0000F37D04FEACA
:1012000011424FEA144721EA024624EA074C02FB46
:1012100007F106FB07F70CFB06F402FB0CFC14EBD2
:10122000074441EB17414FEA154714EB0C4441EBDF
:101230001C4125EA074C02FB07F506FB07F70CFBF0
:1012400006F602FB0CFC16EB074645EB174516EBC2
:101250000C4645EB1C42121951F1000148BF704782
:10126000B619524141EB0101A3F1010370474FEA66
:1012700014454FEA114724EA054621EA074C05FBCD
:1012800007F106FB07F70CFB06F24FF0000605FB23
:101290000CFC12EB074241EB174112EB0C4251EBF5
:1012A0001C4148BF7047921841EB0101A3F10103B3
:1012B00070470000014800F0B0B80000BC000020FA
:1012C00070B5044600688168C943C90717D18168B1
:1012D00021F00101816000F0C9FA05460AE000BF73
:1012E00000F0C4FA401B022804D920688068C0437B
:1012F000C00706D020688068C043C007F0D0002037
:1013000070BDA06A40F01000A062E06A40F00100E9
:10131000E062012070BDFEE770477047F8B5002419
:10132000009490F824202546012A12D0012280F84A
:1013300024204A681F23072A0DD20668776B521EA5
:1013400002EB820293409F430B6893401F437763F5
:1013500019E00220F8BD06680D2A0AD2376BD21FA9
:1013600002EB820293409F430B6893401F43376315
:1013700009E0F76A0D3A02EB820293409F430B6843
:1013800093401F43F7620A68072306680A2A0AD3B4
:10139000F7680A3A02EB420293409F438B689340FE
:1013A0001F43F76008E0376902EB420293409F4316
:1013B0008B6893401F4337610A68102A01D0112AB5
:1013C00020D1124B02689A4217D193681B0219D49C
:1013D000936843F4000393600968102912D10C4903
:1013E0000C4A0968B1FBF2F101EB8101490000E010
:1013F000491E00910029FBD104E0816A41F02001DF
:101400008162012480F824502046F8BD0024014068
:101410005000002040420F00704770B5044600683D
:1014200006684568A90625D5B10723D5A16AC9066E
:1014300003D4A16A41F40071A1628168C1F3424101
:10144000072910D1217B71B9416821F02001416049
:10145000A06A20F48070A062A06AC00403D4A06ACD
:1014600040F00100A0622046FFF7D6FF21686FF030
:101470001200086028062ED570072CD5A06AC00679
:1014800003D4A06A40F40050A06220688168C1F3D0
:101490000231072909D04168490515D48168C1F393
:1014A0004241072910D1217B71B9416821F08001A7
:1014B0004160A06A20F48050A062A06AC00503D4F5
:1014C000A06A40F00100A0622046FFF726FF2168D5
:1014D0006FF00C00086068060CD5F0070AD0A06A0F
:1014E00040F48030A062204600F094F821686FF04C
:1014F0000100086070BD00002DE9F0414FF00007C9
:1015000004003D467ED0A06A002628B9E66284F831
:101510002460204600F080F82046FFF7D1FEA16A43
:10152000C90600D420B1A06A40F01000A06269E0B2
:10153000A16A21F4885141F00201A1626268E16967
:10154000237B0A4347EA43010A43A1684FF48077AB
:10155000B94209D0012907D05FF0000194F814C006
:10156000BCF1010F02D00AE03946F7E7F3B1A36AF4
:1015700043F02003A362E36A43F00103E3622368BC
:10158000D3F804C02CF4694C4CEA010CC3F804C035
:1015900021688B68DFF870C003EA0C0313438B608B
:1015A000A168B9420BD0012909D00CE0DFF85CC07A
:1015B000A3690CEB43330B4343F40061DFE7218A5B
:1015C0000D05A5F580152168CB6A23F470032B4324
:1015D000CB62216889680E4B1940914208D1E662BE
:1015E000A16A21F0020141F00101A162BDE8F08190
:1015F000A06A20F0020040F01000A062E06A40F013
:101600000100E0620120F1E7FDF7E1FF00E0FFFFEC
:10161000FE0E1FFF7047000000B585B0002100914D
:1016200001910291039100681249884220D1124829
:10163000816941F400718161816901F40071049153
:10164000816941F0080181618069694600F0080004
:1016500004900120009003200190084800F010F849
:1016600000220521122000F027FB122000F016FBBB
:1016700005B000BD0024014000100240000C0140F4
:101680002DE9F84FDFF8B8910024A9F1040B2346A7
:101690000F2709F1040AABF1040EC9E00125A540AA
:1016A0002A40AA427DD1674ED1F804C0ACEB0608AF
:1016B000B44532D014DCBCF1030F3AD009DCBCF1E4
:1016C000000F2AD0BCF1010F1CD0BCF1020F31D1A8
:1016D0001DE0BCF1110F17D0BCF1120F2AD119E097
:1016E000B8F5881F19D006DCB8F5803F15D0B8F5DD
:1016F000801F1FD111E0B8F5001F0ED0B8F5041FF0
:1017000018D10AE0CB6815E0CB681B1D12E0CB684E
:1017100008330FE0CB680C330CE08B682BB1012B46
:101720004FF0080303D0456104E0042302E00561A3
:1017300000E00023FF2A01D8064601E000F104067C
:101740004FEA840501D9A5F12005D6F8008007FAF3
:1017500005FC28EA0C0803FA05F548EA0508C6F86E
:1017600000804D68ED0062D5374DAE6946F0010648
:10177000AE61AD6924F0030605F001050095334D17
:1017800006EB050CDCF80850A607360F07FA06F83A
:1017900025EA0805DFF8B880404503D14FF000087E
:1017A00017E044E0DFF8AC80404502D14FF001087B
:1017B0000FE0DFF8A480404502D14FF0020808E0B6
:1017C000DFF89880404502D14FF0030801E04FF068
:1017D000040808FA06F848EA0508CCF808804D68BD
:1017E000D9F80060ED024D4601D5164300E096435E
:1017F0002E604D68DAF80060AD02554601D51643FB
:1018000000E096432E604D68DBF80060AD035D4656
:1018100001D5164300E096432E604D68DEF8006067
:10182000ED03754601D5164300E096432E60641C17
:101830000D682A46E5407FF431AFBDE8F88F00001F
:101840000804014000001110001002400000014097
:1018500000080140000C014000100140001401404C
:101860000AB1016170470904FBE700000148806884
:10187000704700004400002070B5040025D094F8A3
:101880003D00002520B984F83C50204600F04EF978
:10189000242084F83D002068016821F001010160E6
:1018A0002068016841F4004101602068016821F46A
:1018B0000041016000F05EFB4D4A6168914201D831
:1018C0004C4900E04C49884201D2012070BD4B498F
:1018D0002368B0FBF1F15E6826F03F060E435E60C0
:1018E0006368934206D94FF4967359434FF47A7361
:1018F000B1FBF3F12368491C1E6A26F03F06314311
:1019000019626168914210D84900401EB0FBF1F2A3
:10191000521CC2F30B02042A01D2042022E0B0FBC5
:10192000F1F0401CC0F30B001CE0A268F2B301EB25
:10193000C10303EB0116431EB3FBF6F35B1C43F438
:1019400080431B0549D092B301EBC10202EB0111A8
:10195000401EB0FBF1F0401CC0F30B0040F480408F
:1019600040F400402168CA694CF6FF739A43104363
:10197000C861D4E9071001432068026822F0C00260
:1019800011430160D4E9030101432068826848F2F1
:10199000FF339A4311438160D4E90501084321686C
:1019A000CA6822F0FF021043C86001E00EE016E0B2
:1019B0002068016841F0010101602564202084F85D
:1019C0003D00256384F83E50002070BD01EB4106C8
:1019D000431EB3FBF6F35B1CB3E70120C2E701EB48
:1019E0004101401EB0FBF1F0401CC0F30B00B7E713
:1019F000A086010080841E0000093D0040420F00C7
:101A00002DE9F84F1F4690468A460446DDF8289097
:101A1000FFF72CFF054694F83D0020287FD11923BD
:101A2000012240492046009500F07AFE002876D138
:101A300094F83C00012872D0012084F83C00206812
:101A40000168C90703D1016841F001010160206804
:101A5000016821F400610160212084F83D0010201C
:101A600084F83E0000262664C4F824806785608DD3
:101A700020852D48E0622B464A465146204600F01C
:101A8000D5FD90B9206841698069009036E02A460A
:101A90004946204600F0EAFE50B1206C042804D1EB
:101AA0002068016841F4007101600120BDE8F88FF1
:101AB000606A216800780861606A401C6062618D1C
:101AC000491E6185218D491E89B22185226853698D
:101AD000DB435B070BD451B100781061606A401C96
:101AE0006062608D401E6085208D401E20852A46E4
:101AF0004946204600F0E8FD0028CED1208D002880
:101B0000C5D154F83D0B016841F4007101602020FB
:101B100004F81E09E67766770020C7E7FFE7022092
:101B2000C4E70000020010000000FFFF10B586B0FF
:101B30000021009101910291039100680F498842B0
:101B40001AD10F4CA06940F00800A061A069694655
:101B500000F008000490C0200090122001900320A3
:101B600003900848FFF78CFDE06940F40010E06145
:101B7000E06900F40010049006B010BD005400406D
:101B800000100240000C01400248816802781144B4
:101B90008160704744000020074810B5016841F09B
:101BA00010010160032000F0A7F80F2000F006F8F4
:101BB00000F050F8002010BD0020024030B505466E
:101BC0001F4887B0C16941F00401C161C06906A91D
:101BD00000F00400009001A800F0ACF90498B0B146
:101BE00000F0C8F940001749174AB0FBF1F1174857
:101BF000491E0260416040F2E7320021C0E9032142
:101C00008160816100F08EFB040003D015E000F0DC
:101C1000B1F9E8E70D4800F0B3FB04000DD11E2038
:101C200000F03CF8102D07D2002229461E2000F0BB
:101C300043F80748056000E0012407B0204630BDA6
:101C40000010024040420F0000080040DC0300206A
:101C5000480000200F4808B5816941F00101816109
:101C6000816901F001010091C16941F08051C161B8
:101C7000C069002200F0805000900F21901E00F0FB
:101C80001BF80548416821F0E06141F000714160B6
:101C900008BD00000010024000000140002809DBE0
:101CA00000F01F02012191404009800000F1E02076
:101CB000C0F8001170470000F0B40E4B1B680C46D2
:101CC000C3F30223C3F10705042D00D90425191D10
:101CD000072901D2002300E0DB1E012606FA05F1E8
:101CE000491E214099409E40761E16403143F0BC6B
:101CF00000F0BFBF0CED00E0064900F007020868E5
:101D00004FF6FF03184040EA0220034A10430860E0
:101D1000704700000CED00E00000FA052DE9F843E3
:101D200005460078354CC00754D0E0690026C00055
:101D300008D4E06940F08050E061E069012600F0DD
:101D4000805000902E480168C90512D40168804671
:101D500041F480710160FFF789FD074605E000BF8F
:101D6000FFF784FDC01B642823D8D8F80000C00505
:101D7000F6D5206A10F4407021D0A98801F4407192
:101D800081421CD0206A1F49012220F440700A6061
:101D900000220A602062C00711D0FFF767FD0746E6
:101DA00041F2883808E000BFFFF760FDC11B4145E4
:101DB00002D90320BDE8F883206A8007F4D5206AA1
:101DC000696820F44070084320621EB1E06920F089
:101DD0008050E0612878800705D56068A96820F404
:101DE0004040084360602878C00605D56068E9680F
:101DF00020F48000084360600020DBE70010024010
:101E000000700040400442422DE9F0470F460500B3
:101E100061D0434E306800F00700B84209D2306804
:101E200020F0070038433060306800F00700B84207
:101E300051D128683B4C810712D5400703D5606813
:101E400040F4E06060602878000703D5606840F4E3
:101E5000605060606068A96820F0F000084360602E
:101E60002878C00728D06868012810D02168022887
:101E700010D0890700292EDA616821F0030101439F
:101E80006160FFF7F3FC804641F288390DE021687C
:101E90008903EFE78901EDE7FFF7E8FCA0EB080114
:101EA000494502D90320BDE8F0876068696800F001
:101EB0000C00B0EB810FEFD1306800F00700B842A2
:101EC0000BD9306820F0070038433060306800F0EC
:101ED0000700B84201D00120E5E72878400705D582
:101EE0006068E96820F4E0600843606028780007D3
:101EF00006D56068296920F4605040EAC10060603E
:101F000000F058F86168084AC1F30311515CC840F9
:101F10000649086006480068FFF750FE0020C2E747
:101F200000200240001002403E3B0008500000200C
:101F3000480000200F2202600C4A536803F003039C
:101F40004360536803F0F0038360536803F4E06375
:101F5000C36052684FF4E06303EAD20202610448AE
:101F6000006800F0070008607047000000100240A1
:101F7000002002400448054900684968044AC1F34A
:101F80000221515CC8407047500000200010024000
:101F90004E3B00080448054900684968044AC1F3FB
:101FA000C221515CC8407047500000200010024020
:101FB0004E3B00080E4A51680E4801F00C03042BFA
:101FC00011D0082B0FD10C48C1F38343C903C05C67
:101FD0000AD55168084AC1F34041921E515C054A36
:101FE0005043B0FBF1F0704704494843704700008C
:101FF0000010024000127A002E3B000800093D004C
:102000002DE9F84F040070D02078C04DC00749D0AA
:102010006868C0F38100012807D06868C0F38100B8
:10202000022809D16868C00306D52868800339D51D
:1020300060680028E7D035E06068B0F5803F0BD0DD
:1020400010B1B0F5A02F11D0286820F4803028609E
:10205000286820F4802002E0286840F4803028605E
:10206000606890B1FFF702FC06460AE0286840F479
:1020700080202860F0E700BFFFF7F8FB801B642892
:1020800073D828688003F7D50CE0FFF7EFFB06460E
:1020900005E000BFFFF7EAFB801B6428F0D8286842
:1020A0008003F7D420789A4E80074FF001094FF053
:1020B000000839D5686810F00C0F07D06868C0F3C5
:1020C0008100022809D16868C00306D42868800707
:1020D00014D52069012808D110E02069B0B1C6F8F4
:1020E0000090FFF7C3FB074605E00AE1FFF7BEFBE0
:1020F000C01B0228C4D828688007F7D52868616902
:1021000020F0F80040EAC10028600DE0C6F8008029
:10211000FFF7ACFB074604E0FFF7A8FBC01B022853
:1021200023D828688007F7D4207800072CD5794871
:10213000A169D9B1C0F80090FFF798FB074604E009
:10214000FFF794FBC01B02280FD8686A8007F7D5F9
:1021500071484FF4FA510068B0FBF1F0009000BFF5
:102160000098411E0091FAD20EE080E0C0F8008095
:10217000FFF77CFB074604E0FFF778FBC01B022853
:1021800075D8686A8007F7D42078400760D5E86979
:102190000027C00008D4E86940F08050E861E86991
:1021A000012700F0805000905C480168C90513D4F5
:1021B0000168834641F480710160FFF757FB824656
:1021C00006E000BFFFF752FBA0EB0A0064284ED8E0
:1021D000DBF80000C005F5D5E06801280AD008B199
:1021E000052813D0286A20F001002862286A20F010
:1021F000040002E0286A40F001002862E06841F231
:10220000883B98B1FFF732FB82460BE0286A40F02A
:1022100004002862EEE700BFFFF728FBA0EB0A01ED
:1022200059455AD8286A8007F6D50CE0FFF71EFBFF
:10223000824605E0FFF71AFBA0EB0A0159454CD88E
:10224000286A8007F6D41FB1E86920F08050E86161
:10225000E06988B36968C1F38101022944D002288A
:10226000C6F8608004D0FFF701FB044638E034E094
:10227000FFF7FCFA074604E0FFF7F8FAC01B022854
:102280002BD828688001F7D4206AB0F5803F05D1AB
:102290006868A16820F4003008436860D4E9080148
:1022A0000843696821F4741108436860C6F86090B7
:1022B000FFF7DCFA044606E025E000BFFFF7D6FA98
:1022C000001B022809D828688001F7D51BE000BF51
:1022D000FFF7CCFA001B022802D90320BDE8F88FD3
:1022E00028688001F4D40EE00128F7D06868226ADB
:1022F00000F48031914204D1616A00F47010884288
:1023000001D00120EAE70020E8E7000000100240C9
:102310000000424280044242500000200070004011
:102320007047704710B5040003D094F83D0010B119
:1023300007E0012010BD002084F83C00204600F09A
:102340001EF8022084F83D00211D206800F074FB77
:10235000012084F8460084F83E0084F83F0084F8A9
:10236000400084F8410084F8420084F8430084F877
:10237000440084F8450084F83D00002010BD7047FB
:1023800090F83D10012901D001207047022180F80A
:102390003D100168CA6842F00102CA6000680B493A
:1023A000884208D0B0F1804F05D00949884202D058
:1023B0000849884204D1816801F00701062903D049
:1023C000016841F00101016000207047002C0140CC
:1023D000000400400008004070472DE9F041044629
:1023E0000068C66805694FF00007A90713D5B10753
:1023F00011D5F91E016101202077206880698007CE
:10240000204602D0FFF7E8FF04E000F07EF8204607
:1024100000F07CF82777680716D5700714D5216877
:102420006FF004000861022020772068806910F4B2
:10243000407F204602D0FFF7CFFF04E000F065F8B0
:10244000204600F063F82777280715D5300713D505
:1024500021686FF008000861042020772068C069B7
:102460008007204602D0FFF7B7FF04E000F04DF8E8
:10247000204600F04BF82777E80616D5F00614D56D
:1024800021686FF010000861082020772068C0697B
:1024900010F4407F204602D0FFF79EFF04E000F0DA
:1024A00034F8204600F032F82777E80708D0F00724
:1024B00006D021686FF001000861204600F028F87E
:1024C000280608D5300606D521686FF0800008611F
:1024D0002046FFF725FF680608D5700606D5216857
:1024E0006FF040000861204600F01CF8A8060AD5ED
:1024F000B00608D521686FF0200008612046BDE8CD
:10250000F041FFF70EBFBDE8F08170477047000053
:1025100000680349884201D1FFF736BB70470000CD
:1025200000080040704770B5040004D094F84100E2
:10253000002510B106E0012070BD84F8405020460F
:1025400000F024F8242084F841002068C16821F4B8
:102550000051C160204600F01BFB2068016921F496
:10256000904101612068416921F02A0141612068A0
:10257000C16841F40051C1606564202084F84100C5
:1025800084F842006563002070BD000030B585B05E
:102590000024009401940294039400681449884232
:1025A00023D11448C16941F40031C161C16901F40A
:1025B00000310491816941F00401816180690E4D0F
:1025C00000F00400049004200090022001900320F9
:1025D000039069462846FFF753F80820CDE9000428
:1025E000694628460294FFF74BF805B030BD00005D
:1025F000004400400010024000080140FEE701686E
:102600004A69D24352050FD46FF480624A610021B7
:1026100040F8301F202242738173026942F00402A5
:10262000026101730120704700207047F8B504462D
:10263000C06A1E460D461746082807D0012805D057
:1026400010F5803F02D0206B122804D12068016869
:1026500041F480710160134600224FF001112046C1
:10266000009600F05DF840B120680068C00502D512
:102670004FF4007020640320F8BD2069B0F5804F4E
:102680000ED00620216800EAD51040F0F000086165
:1026900033463A460B49204600F08AF878B902E002
:1026A00005F0FE0000E0E8B2216808610549334604
:1026B0003A46891F204600F07BF80028DCD0012034
:1026C000F8BD00000800010070B516460D4604462E
:1026D0001EE02046FFF793FF08B1012070BD681C83
:1026E00016D0FFF7C3F8801BA84200D885B9206830
:1026F0004069C04340070BD5002044F8300F20212B
:102700006173A073216941F0200121612073E4E726
:1027100020684069C0434007DBD4002070BD000042
:102720002DE9F047984617460D460446C1F3074683
:10273000DDF820902AE000BFB8F1FF3F26D0FFF778
:1027400095F8A0EB0901414502D8B8F1000F1DD161
:102750002068012E16D0806925EA00000004000CD4
:1027600012D00020B84211D1002044F8300F2021AF
:102770006173A073216941F0200121612073012060
:10278000BDE8F0874069E7E70120EBE72068012E0C
:102790000AD0806925EA00000004000C06D0002061
:1027A000B842C9D00020EBE74069F3E70120F7E722
:1027B0002DE9F047984616460D4604464FF00009AD
:1027C0004FF0200AC1F3074723E020684069C04367
:1027D000400515D42068016841F40071016021684A
:1027E0006FF480604861C4F8309084F83DA084F8AC
:1027F0003E90216C41F00401216484F83C9021E07A
:10280000701C06D0FFF732F8A0EB0800B04203D8E6
:1028100016B1012F1FD021E02068012F15D080694B
:1028200025EA00000004000C18D000BF44F8309FD7
:1028300084F80DA084F80E90216941F020012161F7
:1028400084F80C900120BDE8F087406925EA00007B
:102850000004000CEAD12068406901E0206880692A
:1028600025EA00000004000CAFD1ECE770B5164675
:102870000D4604461EE02046FFF7C1FE08B10120C8
:1028800070BD681C16D0FEF7F1FF801BA84200D86F
:1028900085B920684069C04300060BD5002044F884
:1028A000300F20216173A073216941F02001216163
:1028B0002073E4E720684069C0430006DBD40020B1
:1028C00070BD00003EB500241148009401940294AC
:1028D0000E498460016004730475012505614FF49D
:1028E00060214460C161FEF707FE08B172B6FEE7E1
:1028F0000820CDE90005694602940548FEF70EFD63
:10290000002801D072B6FEE73EBD00000024014061
:10291000BC00002030B585B0002417480094019415
:1029200002940394816941F020018161816901F081
:1029300020010491816941F004018161816901F004
:1029400004010491816941F00801816180690B4DA6
:1029500000F008000490002201212846FEF780FFC5
:102960000220012103900091CDE901146946284617
:10297000FEF786FE05B030BD0010024000080140A1
:10298000FEE7FEE710B5502080F31188BFF34F8FAC
:10299000BFF36F8F00F000FF18B104494FF0805073
:1029A0000860002080F3118810BD000004ED00E0F5
:1029B00030B593B028216846FDF7DEFC14210AA843
:1029C000FDF7DAFC002501200F9510951195010403
:1029D00012958DE8230004904FF4E010CDE9081023
:1029E000022407946846FFF70BFB08B172B6FEE7B6
:1029F0000AA90F2081E831004FF48060CDE90D0570
:102A000002210AA8FFF700FA08B172B6FEE74FF4F8
:102A1000004011900F940FA8FFF780F9002801D013
:102A200072B6FEE713B030BD704700000148FFF7F3
:102A3000D4BC0000DC030020F0B50268194B1A4C2E
:102A40001A4D4FF08047984205D0B84203D0A042BB
:102A500001D0A84203D122F070064A68324398425E
:102A600005D0B84203D0A04201D0A84203D122F43D
:102A70004074CA6822434C6922F0800222430260FB
:102A80008A68C2620A688262984201D10969016358
:102A9000012141610169C90703D0016921F00101E8
:102AA0000161F0BD002C014000040040000800401E
:102AB00008B500F0DAF9084C4FF47A7500906068B8
:102AC0004FF47A71401C606060694843B0FBF5F1D7
:102AD000684600F0C3F9F2E70000002008B500F0F6
:102AE000C4F9084C4FF47A750090A0684FF47A71DD
:102AF000401CA060A0694843B0FBF5F1684600F0B7
:102B0000ADF9F2E70000002090B000F0AEF9114CF2
:102B10004FF47A750F90E0680021401CE060084691
:102B200000F0BDF8206800F055FFCDE900010AA2D1
:102B3000322102A8FDF7A0FB02A800F0FBF8E06933
:102B40004FF47A714843B0FBF5F10FA800F086F915
:102B5000E1E700000000002054656D703A20256612
:102B60000000000008B500F080F9084C4FF47A75B9
:102B7000009020694FF47A71401C2061206A48431C
:102B8000B0FBF5F1684600F069F9F2E700000020BB
:102B900070B5044600680169E26821F440511143B0
:102BA00001612169A0680843616908432168CA6816
:102BB00041F20C639A430243CA6020684169A269EA
:102BC00021F44071114341611E492068884202D1BD
:102BD000FFF7E0F901E0FFF7CDF900EBC00101EBF1
:102BE0000012606864218000B2FBF0F3B3FBF1F3E4
:102BF0006FF018067343B2FBF0F5B2FBF0F605EB8D
:102C00008305322303EB0515B5FBF1F5B6FBF1F6B1
:102C100005F0F00505EB0615B2FBF0F6B2FBF0F09F
:102C2000B0FBF1F06FF01802504306EB800003EBAD
:102C30000010B0FBF1F0216800F00F00284488601C
:102C400070BD000000380140FEE7490050EAC12095
:102C500018BF04204A0D18BF40F0010040F2FF7277
:102C6000B2EB515F08BF40F00200012808BF052009
:102C700070470907090E002804DB00F1E02080F806
:102C80000014704700F00F0000F1E02080F8141DE0
:102C90007047EFF30580002800D001207047020044
:102CA00002D0012804D101E0803100E0C031C8B277
:102CB000AFF300801CB500F0F00141F00C028DF87C
:102CC000042041F0080100018DF8051040F00C01CE
:102CD0008DF8061040F008008DF807006420009081
:102CE000042301AA4E210248FEF78AFE1CBD000003
:102CF000EC0000201CB500F0F00141F00D028DF851
:102D0000042041F0090100018DF8051040F00D018B
:102D10008DF8061040F009008DF80700642000903F
:102D2000042301AA4E210248FEF76AFE1CBD0000E2
:102D3000EC00002010B5044602E0641CFFF7DAFF47
:102D400020780028F9D110BD9CB0FEF725FFFFF7D1
:102D50002FFEFFF7DFFD394837490024016038496D
:102D6000C0E901144FF48041C0E90341446184612A
:102D7000C4610462FEF780FD08B172B6FEE72F4819
:102D80003049543001604FF4E131C0E901140C21A5
:102D9000C460C0E904418461C461FFF7C4FB08B1A9
:102DA00072B6FEE7FFF78EFD002232210A2000F006
:102DB00027FC254C0022322160630A2000F020FC11
:102DC000A063002232210A2000F01AFCE0630022F6
:102DD00032210A2000F014FC20641C221B496846A2
:102DE000FDF798FA0021684600F04BF81749606239
:102DF0001C221C3107A8FDF78DFA002107A800F05E
:102E000040F81249A0621C2238310EA8FDF782FA60
:102E100000210EA800F035F80C49E0621C22543164
:102E200015A8FDF777FA002115A800F02AF820630D
:102E300000F016F8FEE7000000540040EC0000200F
:102E4000A08601000044004000000020BC3A0008B9
:102E500001460020842900D0C81C7047812070479B
:102E600010B500F00DFB002010BD10B5FFF711FFED
:102E700018B1BDE8104000F087BCBDE8104000F07C
:102E80007DBC7FB50D4604464169B0F9080081B1AB
:102E9000A16971B1FFF7DCFFD4E905128DE80700E5
:102EA000D4E900102B46226900F03DFC039004B0E9
:102EB00070BDFFF7CDFF03A9CDE90001208A2B46A5
:102EC00082B2D4E9001000F001FC012801D00020FA
:102ED000EDE70398EBE700002DE9F041054600F02F
:102EE0002DFA2E4CA068401CA06020682C4F10B119
:102EF000606940B32DE02560A068012829D1002633
:102F000006EB860007EB800000F0FEF9761C072E2A
:102F1000F6D323488C3000F0F7F92148A03000F0B8
:102F2000F3F91F48B43000F0EFF91D48C83000F045
:102F3000EBF91B48DC3000F0E7F919488C3060638E
:102F40001430A06305E02068E96AC06A884200D8AE
:102F50002560606A401C6062E96A0120226988403D
:102F60001043206101EB810007EB8000291D00F078
:102F7000D9F900F003FA606900280CD02068E96AEA
:102F8000C06A884207D207494FF080500860BFF3FB
:102F90004F8FBFF36F8FBDE8F08100005400002019
:102FA0002404002004ED00E010B5044690F8510020
:102FB00058B101280CD002280FD0502080F311887E
:102FC000BFF34F8FBFF36F8FFEE7206B00F0EAF97E
:102FD0002046BDE8104000F0E5B910BD10484FF4A0
:102FE0004061420706D0C01D0D4920F00700411A7C
:102FF000C1F540610B4A00230144C2E900030839CE
:10300000183A21F0070111604B600B600B1AC0E900
:10301000001393604FF00040536050617047000010
:1030200014050020A8000020144E154CA6F1C80776
:103030004FF08058DFF84C9012E000BF00F07EF9AE
:10304000F068C568281D00F041F9A068401EA06026
:103050006068401E606000F091F92846FFF7A4FF09
:1030600060680028EAD138680128F9D9C9F80080D9
:10307000BFF34F8FBFF36F8FF2E70000EC04002027
:103080005400002004ED00E00346009829B10260DE
:10309000C0E90F31012100F0D5BA0060F8E72DE951
:1030A000F0479A46DDE9098481466FF00303206BFF
:1030B00003EB82021044089E20F00707780707D030
:1030C000502080F31188BFF34F8FBFF36F8FFEE75F
:1030D000002561B1002023180A5C83F834200A5CC3
:1030E00012B1401C1028F6D384F8435001E084F854
:1030F0003450072E00D30626E662C4E91165201D70
:1031000000F00DF904F1180000F009F92461C6F18E
:1031100007006462A061E56484F850505246494655
:10312000384600F0C1F82060B8F1000F01D0C8F8AF
:103130000040BDE8F087000030B5114900E01146BD
:103140000A688242FBD34B685C18844203D1406812
:1031500018444860084643681C18944209D1084C3A
:10316000183C2468A24209D052681A4442600A6896
:1031700012680260814200D0086030BD0460F9E747
:10318000A80000200648416B096829B1416BC96855
:10319000C9684968816270474FF0FF31FAE7000063
:1031A0005400002008484068401C4FF0500080F355
:1031B000118804D0BFF34F8FBFF36F8FFEE7BFF3CB
:1031C0004F8FBFF36F8FFEE7B00000202DE9F04175
:1031D0000546002700F08AF9324E306808B9FFF73B
:1031E000FDFE706905424ED1C5B3083568070ED0A3
:1031F00005F00700C0F108000544680707D050201B
:1032000080F31188BFF34F8FBFF36F8FFEE72DB3AD
:103210007068854237D82348183001460C6801E0B1
:1032200020460C466168A94202D221680029F7D1E4
:1032300031688C4227D007682168016060680837D0
:10324000411B10290FD96019420708D0502080F384
:103250001188BFF34F8FBFF36F8FFEE713E041601C
:103260006560FFF769FF61687068401A7060B26856
:10327000904200D2B060706901430020C4E90001AF
:10328000F068401CF06000F027FB780707D0502062
:1032900080F31188BFF34F8FBFF36F8FFEE738467F
:1032A000BDE8F0819000002010B5031F4FF080743E
:1032B0001C601B1F21F001011960191F024B0B60DC
:1032C000143940380A6010BDA5310008D0E9013238
:1032D00001699A60D0E901235A604A68824201D1AB
:1032E00082684A60002202610868401E086008681F
:1032F00070470000034B036003F154000860802016
:10330000106070478801002000F108014FF0FF3283
:10331000C0E90112C1600161002101607047002114
:103320000161704742684A6093688B609368596096
:10333000916008610168491C01607047502080F36A
:103340001188BFF34F8FBFF36F8F0A494868401C45
:10335000486001280CD10848006810F0FF0F07D022
:10336000502080F31188BFF34F8FBFF36F8FFEE7BC
:1033700070470000B000002004ED00E008494868F4
:1033800028B1401E486001D180F311887047502059
:1033900080F31188BFF34F8FBFF36F8FFEE70000FC
:1033A000B000002070B500282AD0164DA0F1080406
:1033B00060686969084207D1502080F31188BFF323
:1033C0004F8FBFF36F8FFEE722683AB1502080F332
:1033D0001188BFF34F8FBFF36F8FFEE788436060A4
:1033E00000F084F860686968084468602046FFF768
:1033F000A3FE2869401C2861BDE8704000F06CBA4B
:1034000070BD0000900000204FF0E020002101611D
:10341000816105494FF47A720968B1FBF2F1491EE6
:1034200041610721016170475000002010B5FCF791
:10343000FFFE114910280ED300F1E02090F8F003B0
:103440000A78904207D2502080F31188BFF34F8F43
:10345000BFF36F8FFEE709480068896800F4E060F9
:10346000884207D9502080F31188BFF34F8FBFF3F4
:103470006F8FFEE710BD0000B00000200CED00E0F3
:1034800010B586B00024039405AA04A903A80494E7
:10349000FFF730FFDDE903010094CDE901100023BF
:1034A0000EA11048059A00F03EF90F490028C862A5
:1034B00011D0502080F31188BFF34F8FBFF36F8F6F
:1034C0004FF0FF30886201204861CC6006B0BDE853
:1034D000104000F041B806B010BD000049444C4512
:1034E0000000000029300008540000200248016B51
:1034F000491C016370470000540000201448016B10
:1035000011B10121C16170470021C1610169B1FAA6
:1035100081F1C1F11F0101EB81020E4951F8223006
:103520006BB101EB820101F108034A6852684A60FD
:103530009A4201D152684A60D168016070475020B8
:1035400080F31188BFF34F8FBFF36F8FFEE700004A
:1035500054000020240400201CB52649087801905E
:10356000FF20087008788DF800009DF800009DF895
:10357000002000F0F000904207D0502080F3118826
:10358000BFF34F8FBFF36F8FFEE79DF800001A4C1B
:1035900000F0500020700720A06005E09DF800209A
:1035A00052008DF80020401E9DF800201206F5D430
:1035B000A060032807D0502080F31188BFF34F8FFD
:1035C000BFF36F8FFEE74FF44070A0600198087062
:1035D0000A48016841F470010160016841F07041DE
:1035E0000160FFF711FF00206060FCF7EBFD002099
:1035F0001CBD000000E400E0B000002020ED00E071
:10360000F8B517460E46050013D005FB06F0483006
:10361000FFF7DCFD04000AD0002084F8460004F126
:1036200048023B46314628460094FFF72DFD2046D0
:10363000F8BD502080F31188BFF34F8FBFF36F8F19
:10364000FEE7000070B50D46040025D0FFF776FEBA
:10365000D4E90F20216802FB0011A1600021A163C1
:10366000216861600A46D4E90F01401E00FB012178
:10367000E16021464FF0FF3001F8440F487004F13B
:1036800010008DB1FFF740FE04F12400FFF73CFE6F
:10369000FFF774FE012070BD502080F31188BFF346
:1036A0004F8FBFF36F8FFEE721690029F0D000F044
:1036B000D9F80028ECD004494FF080500860BFF3DF
:1036C0004F8FBFF36F8FE3E704ED00E02DE9FF5F5D
:1036D0008346DDE90E87994616468A469000FFF735
:1036E00075FD05001CD05420FFF770FD040014D0B8
:1036F0000020256384F85100CDE90240CDE9008720
:103700004B46324651465846FFF7C9FC2046FFF764
:10371000E3FB012004B0BDE8F09F2846FFF742FE1E
:103720004FF0FF30F6E7F0B585B0DDE90B640A9D98
:10373000A6B1DCB1542700972663022684F85160B5
:10374000002604AFCDE90246CDE90057FFF7A7FCFC
:103750002046FFF7C1FB049805B0F0BD502080F370
:103760001188BFF34F8FBFF36F8FFEE7502080F3B8
:103770001188BFF34F8FBFF36F8FFEE70148C0681A
:10378000704700005400002010B5FFF74FFE0148BD
:10379000C06810BD540000202DE9F0412F4C0026D8
:1037A000206B28B1A069401CA0613046BDE8F081C3
:1037B000E5686D1CE56013D1606B006838B150207E
:1037C00080F31188BFF34F8FBFF36F8FFEE7606BFD
:1037D000A16B6163A063206A401C2062FFF7D2FCEA
:1037E000A06ADFF87C80854209D3606B0068A0B1D5
:1037F000606BC068C7687868854211D2A062206893
:10380000C06A00EB800158F82100012800D9012688
:10381000E0690028C9D00126C7E74FF0FF30EDE787
:10382000381DFFF753FDB86A18B107F11800FFF70C
:103830004DFDF96A0120226988401043206101EBA7
:10384000810108EB8100391DFFF76CFDF86A2168E2
:10385000C96A8842C9D30126C7E700005400002086
:10386000240400202DE9F041C068C468ACB104F123
:1038700018000746FFF72AFD154D286B0126A0B159
:1038800039461448FFF74EFDE06A2968C96A884244
:103890001CD90120EE61BDE8F081502080F3118831
:1038A000BFF34F8FBFF36F8FFEE7201DFFF70EFDB5
:1038B000E16A2A6906FA01F01043286101EB8100F0
:1038C0000449B43901EB8000211DDBE70020E2E769
:1038D00054000020D80400202DE9F0472C4D00248E
:1038E0002746286B38B1FFF729FD286B401E286357
:1038F000286B40B146E0502080F31188BFF34F8F12
:10390000BFF36F8FFEE7A968224E0120D1B3A6F165
:10391000B40980463068E8B1F068C46804F1180062
:10392000FFF7D4FC201DFFF7D1FCE06A2A6908FAF2
:1039300000F11143296100EB800109EB8100211D99
:10394000FFF7F0FCE06A2968C96A8842E2D3C5F84B
:103950001C80DFE70CB1FFF715FCAC6944B14646AB
:10396000FFF71AFF00B1EE61641EF9D10020A861D3
:10397000E86938B10849012738070860BFF34F8F5D
:10398000BFF36F8FFFF7FAFC3846BDE8F087000001
:1039900054000020D804002004ED00E010B50029F8
:1039A0000AD00878002807D005487844FDF772F857
:1039B000002801D0002010BD0248784410BD00004E
:1039C000820200007A0200000808A0F500114FEA08
:1039D0003101704743004FEAD30C4FEA3C0C43409F
:1039E0001FBF40070CF1605113F0FE4F70471CF0F1
:1039F000006F03D100200CF0004170470CF0004331
:103A000043EA507010B540EACC0000F00EF800BF59
:103A1000000000924FEA0001FFF7D6BF4FF00041CF
:103A20004FF00000A1F5002170470EF1020E2EF0BC
:103A3000030E5EF8044B244204D44FEA4102B2F173
:103A40007F4F11D84FEA4003B3F17F4F0CD80ED10E
:103A50004FEAD07CB2F17F4F0CEB4C0C0CF1020C16
:103A600008BF4CEBD17C04E04FF0080C01E04FEABA
:103A7000D17C0CEB4C0324FA03F404F00704B4F1FA
:103A8000040C06D20EEB840CBDE810404CF0010C87
:103A90006047DFE80CF0070802024FF00040A0F595
:103AA000800010BD0846420018BFD2F1807288BF66
:103AB00000F0004010BDFCF762BD0000EC3B0008C8
:103AC000B12A0008FEFF0000000000000002000014
:103AD0000000000000000000F43B0008DD2A0008A0
:103AE00001000000000000000002000000000000D3
:103AF00000000000FC3B0008092B0008000000004B
:103B000000000000000200000000000000000000B3
:103B1000043C0008652B00080200000000000000C3
:103B2000000200000000000000000000010202038B
:103B30000405060708090A0B0C0D0E0F10100000F3
:103B4000000000000000010203040607080900004D
:103B5000000001020304000002400000000000A079
:103B60000000000005400000000000C80000000048
:103B70000C4000000000409C0000000019400000C4
:103B80000020BCBE0000000034400000BFC91B8EF6
:103B900000000004B5400000504BCFD06607E2CFD4
:103BA000010000006C4100003E8251AADFEEA73404
:103BB00001000000D9420000DCB5A0E23A301F97B6
:103BC000FFFFFFFFB4450000FD25A0C8E9A3C14FDA
:103BD000FFFFFFFFFF3F000000000080000000002B
:103BE000FF3F000000000080000000005461736B84
:103BF000310000005461736B320000005461736B3C
:103C0000330000005461736B34000000483C00082E
:103C100000000020BC00000028010008043D00084E
:103C2000BC000020BC160000440100081C0000007D
:103C300043000000F8FFFFFF0C0000000E00000032
:103C40000F0000002E0000000000803F0000000078
:103C5000000000000000000000000000E803000079
:103C6000C8000000F4010000640000000000000033
:103C70000000000000000000000000000000000044
:103C80000000000000000000000000000100000033
:103C9000100000000000000000127A000000000088
:103CA0000000000000000000000000000000000014
:103CB0000000000000000000000000000000000004
:103CC00000000000000000000000000000000000F4
:103CD00000000000000000000000000000000000E4
:103CE00000000000000000000000000000000000D4
:103CF000000000000000000000000000AAAAAAAA1C
:043D000000000000BF
:04000005080000ED02
:00000001FF
