:020000040800F2
:1000000048170020210200087B1900080518000885
:1000100079190008E3030008A51C0008000000008F
:10002000000000000000000000000000890100083E
:10003000E503000800000000CD010008A519000834
:100040003B0200083B0200083B0200083B0200089C
:100050003B0200083B0200083B0200083B0200088C
:100060003B0200083B0200083B0200083B0200087C
:100070003B0200083B0200083B0200083B0200086C
:100080003B0200083B0200083B0200083B0200085C
:100090003B0200083B0200083B0200083B0200084C
:1000A0003B0200083B0200083B0200083B0200083C
:1000B0003B0200083D1A00083B0200083B02000812
:1000C0003B0200083B0200083B0200083B0200081C
:1000D0003B020008991C00083B0200083B02000894
:1000E0003B0200083B0200083B02000800F002F857
:1000F00000F03AF80AA090E8000C82448344AAF188
:100100000107DA4501D100F02FF8AFF2090EBAE885
:100110000F0013F0010F18BFFB1A43F0010318473B
:100120002C2700004C270000103A24BF78C878C163
:10013000FAD8520724BF30C830C144BF04680C60ED
:10014000704700000023002400250026103A28BF35
:1001500078C1FBD8520728BF30C148BF0B60704739
:100160001FB51FBD10B510BD00F0DAF81146FFF73E
:10017000F7FF01F0A8FD00F0F8F803B4FFF7F2FF75
:1001800003BC00F0FBF80000224B19680868B0E8D7
:10019000F00F80F30988BFF36F8F4FF0000080F3FA
:1001A00011884EF00D0E70470000000006480068F0
:1001B000006880F3088862B661B6BFF34F8FBFF363
:1001C0006F8F00DF00BF00BF08ED00E0EFF3098094
:1001D000BFF36F8F0F4B1A6820E9F00F106008B55E
:1001E0004FF0500080F31188BFF34F8FBFF36F8F34
:1001F00002F008F94FF0000080F31188BDE80840D4
:1002000019680868B0E8F00F80F30988BFF36F8FB2
:10021000704700BF24000020EFF305807047000006
:100220000948804709480047FEE7FEE7FEE7FEE78A
:10023000FEE7FEE7FEE7FEE7FEE7FEE704480549C6
:10024000054A064B70470000391A0008ED00000807
:1002500048110020481700204813002048130020B0
:1002600010B5203AC0F00B80B1E81850203AA0E851
:100270001850B1E81850A0E81850BFF4F5AF5FEA85
:10028000027C24BFB1E81850A0E8185044BF18C938
:1002900018C0BDE810405FEA827C24BF51F8043BDF
:1002A00040F8043B08BF7047D20728BF31F8023B33
:1002B00048BF11F8012B28BF20F8023B48BF00F8C7
:1002C000012B70474FF0000200B513469446964646
:1002D000203922BFA0E80C50A0E80C50B1F1200159
:1002E000BFF4F7AF090728BFA0E80C5048BF0CC007
:1002F0005DF804EB890028BF40F8042B08BF704765
:1003000048BF20F8022B11F0804F18BF00F8012BD6
:10031000704770477047704700487047E4100020EE
:100320007546FFF7F9FFAE4605006946534620F0D3
:100330000700854618B020B5FFF780FFBDE82040D4
:100340004FF000064FF000074FF000084FF0000B91
:1003500021F00701AC46ACE8C009ACE8C009ACE844
:10036000C009ACE8C0098D46704710B50446AFF32C
:1003700000802046BDE81040FFF7FFBE014918206D
:10038000ABBEFEE7260002007047000070B50446D1
:1003900000688168C943C90717D1816821F001014C
:1003A000816000F0BBFA05460AE000BF00F0B6FA33
:1003B000401B022804D920688068C043C00706D0CB
:1003C00020688068C043C007F0D0002070BDA06ADC
:1003D00040F01000A062E06A40F00100E0620120FD
:1003E00070BDFEE7704772B6FEE70000F8B5002466
:1003F000009490F824202546012A12D0012280F88A
:1004000024204A681F23072A0DD20668776B521EE4
:1004100002EB820293409F430B6893401F43776334
:1004200019E00220F8BD06680D2A0AD2376BD21FE8
:1004300002EB820293409F430B6893401F43376354
:1004400009E0F76A0D3A02EB820293409F430B6882
:1004500093401F43F7620A68072306680A2A0AD3F3
:10046000F7680A3A02EB420293409F438B6893403D
:100470001F43F76008E0376902EB420293409F4355
:100480008B6893401F4337610A68102A01D0112AF4
:1004900020D1124B02689A4217D193681B0219D4DB
:1004A000936843F4000393600968102912D10C4942
:1004B0000C4A0968B1FBF2F101EB8101490000E04F
:1004C000491E00910029FBD104E0816A41F020011E
:1004D0008162012480F824502046F8BD00240140A8
:1004E0002000002040420F002DE9F0414FF00007AE
:1004F00004003D467ED0A06A002628B9E66284F852
:100500002460204600F07EF82046FFF73FFFA16AF6
:10051000C90600D420B1A06A40F01000A06269E0D2
:10052000A16A21F4885141F00201A1626268E16987
:10053000237B0A4347EA43010A43A1684FF48077CB
:10054000B94209D0012907D05FF0000194F814C026
:10055000BCF1010F02D00AE03946F7E7F3B1A36A14
:1005600043F02003A362E36A43F00103E3622368DC
:10057000D3F804C02CF4694C4CEA010CC3F804C055
:1005800021688B68DFF870C003EA0C0313438B60AB
:10059000A168B9420BD0012909D00CE0DFF85CC09A
:1005A000A3690CEB43330B4343F40061DFE7218A7B
:1005B0000D05A5F580152168CB6A23F470032B4344
:1005C000CB62216889680E4B1940914208D1E662DE
:1005D000A16A21F0020141F00101A162BDE8F081B0
:1005E000A06A20F0020040F01000A062E06A40F033
:1005F0000100E0620120F1E7FDF7E1FF00E0FFFF0D
:10060000FE0E1FFF00B585B00021009101910291FF
:10061000039100680E49884218D10E48816941F45F
:1006200000718161816901F400710491816941F077
:10063000040181618069694600F004000490012092
:10064000009003200190044800F078F805B000BD48
:1006500000240140001002400008014010B590F84D
:1006600021100022022905D00421816380F8202076
:10067000012010BD01680B6823F00E030B600168B8
:100680000B6823F001030B6090F84030C46B01212C
:1006900001FA03F3636080F8211080F820201046EF
:1006A00010BD000010B590F821100024022903D0DD
:1006B0000421816301243DE001680A6822F00E02F2
:1006C0000A6001680A6822F001020A601A4A016899
:1006D000914201D1012121E0174A1432914201D106
:1006E00010211BE0144A2832914201D1891515E0EE
:1006F000114A3C32914201D189140FE00E4A503226
:10070000914202D14FF4803108E00B4A64329142A9
:1007100002D14FF4801101E04FF08071064A083A8F
:100720005160012180F82110002180F82010416BD8
:1007300001B18847204610BD080002402DE9F84F5E
:10074000DFF8B8910024A9F1040B23460F2709F123
:10075000040AABF1040EC9E00125A5402A40AA42D3
:100760007DD1674ED1F804C0ACEB0608B44532D059
:1007700014DCBCF1030F3AD009DCBCF1000F2AD025
:10078000BCF1010F1CD0BCF1020F31D11DE0BCF156
:10079000110F17D0BCF1120F2AD119E0B8F5881F3C
:1007A00019D006DCB8F5803F15D0B8F5801F1FD1F1
:1007B00011E0B8F5001F0ED0B8F5041F18D10AE0FB
:1007C000CB6815E0CB681B1D12E0CB6808330FE047
:1007D000CB680C330CE08B682BB1012B4FF0080376
:1007E00003D0456104E0042302E0056100E000233A
:1007F000FF2A01D8064601E000F104064FEA84050D
:1008000001D9A5F12005D6F8008007FA05FC28EAF1
:100810000C0803FA05F548EA0508C6F800804D689B
:10082000ED0062D5374DAE6946F00106AE61AD69A7
:1008300024F0030605F001050095334D06EB050C89
:10084000DCF80850A607360F07FA06F825EA08056F
:10085000DFF8B880404503D14FF0000817E044E0CE
:10086000DFF8AC80404502D14FF001080FE0DFF81F
:10087000A480404502D14FF0020808E0DFF89880DC
:10088000404502D14FF0030801E04FF0040808FA98
:1008900006F848EA0508CCF808804D68D9F80060E9
:1008A000ED024D4601D5164300E096432E604D689B
:1008B000DAF80060AD02554601D5164300E09643D4
:1008C0002E604D68DBF80060AD035D4601D5164330
:1008D00000E096432E604D68DEF80060ED0375463B
:1008E00001D5164300E096432E60641C0D682A462D
:1008F000E5407FF431AFBDE8F88F00000804014007
:1009000000001110001002400000014000080140EA
:10091000000C0140001001400014014001488068B3
:10092000704700001400002070B5040025D094F832
:100930003D00002520B984F83C50204600F0B8F86E
:10094000242084F83D002068016821F00101016045
:100950002068016841F4004101602068016821F4C9
:100960000041016000F0C8FA4D4A6168914201D827
:100970004C4900E04C49884201D2012070BD4B49EE
:100980002368B0FBF1F15E6826F03F060E435E601F
:100990006368934206D94FF4967359434FF47A73C0
:1009A000B1FBF3F12368491C1E6A26F03F06314370
:1009B00019626168914210D84900401EB0FBF1F203
:1009C000521CC2F30B02042A01D2042022E0B0FB25
:1009D000F1F0401CC0F30B001CE0A268F2B301EB85
:1009E000C10303EB0116431EB3FBF6F35B1C43F498
:1009F00080431B0549D092B301EBC10202EB011108
:100A0000401EB0FBF1F0401CC0F30B0040F48040EE
:100A100040F400402168CA694CF6FF739A431043C2
:100A2000C861D4E9071001432068026822F0C002BF
:100A300011430160D4E9030101432068826848F250
:100A4000FF339A4311438160D4E9050108432168CB
:100A5000CA6822F0FF021043C86001E00EE016E011
:100A60002068016841F0010101602564202084F8BC
:100A70003D00256384F83E50002070BD01EB410627
:100A8000431EB3FBF6F35B1CB3E70120C2E701EBA7
:100A90004101401EB0FBF1F0401CC0F30B00B7E772
:100AA000A086010080841E0000093D0040420F0026
:100AB00010B586B000210091019102910391006868
:100AC0000F4988421AD10F4CA06940F00800A0617C
:100AD000A069694600F008000490C0200090122030
:100AE0000190032003900848FFF728FEE06940F4D6
:100AF0000010E061E06900F40010049006B010BD41
:100B00000054004000100240000C0140024881687F
:100B1000027811448160704714000020074810B526
:100B2000016841F010010160032000F0A7F80F20D8
:100B300000F006F800F050F8002010BD0020024040
:100B400030B505461F4887B0C16941F00201C16157
:100B5000C06906A900F00200009001A800F0ACF9FD
:100B60000498B0B100F0C8F940001749174AB0FB2B
:100B7000F1F11748491E0260416040F2E73200215E
:100B8000C0E903218160816100F08EFB040003D085
:100B900015E000F0B1F9E8E70D4800F0B3FB040000
:100BA0000DD11D2000F03CF8102D07D2002229465F
:100BB0001D2000F043F80748056000E0012407B05D
:100BC000204630BD0010024040420F0000040040AB
:100BD000AC030020180000200F4808B5816941F0DF
:100BE00001018161816901F001010091C16941F058
:100BF0008051C161C069002200F0805000900F2137
:100C0000901E00F01BF80548416821F0E06141F0BA
:100C10000071416008BD000000100240000001406A
:100C2000002809DB00F01F020121914040098000EB
:100C300000F1E020C0F8001170470000F0B40E4B46
:100C40001B680C46C3F30223C3F10705042D00D92A
:100C50000425191D072901D2002300E0DB1E01260F
:100C600006FA05F1491E214099409E40761E164025
:100C70003143F0BC01F017B80CED00E0064900F07C
:100C8000070208684FF6FF03184040EA0220034AB3
:100C900010430860704700000CED00E00000FA050A
:100CA0002DE9F84305460078354CC00754D0E0697B
:100CB0000026C00008D4E06940F08050E061E0699F
:100CC000012600F0805000902E480168C90512D41A
:100CD0000168804641F480710160FFF71FFE0746FE
:100CE00005E000BFFFF71AFEC01B642823D8D8F820
:100CF0000000C005F6D5206A10F4407021D0A98804
:100D000001F4407181421CD0206A1F49012220F465
:100D100040700A6000220A602062C00711D0FFF70D
:100D2000FDFD074641F2883808E000BFFFF7F6FDF9
:100D3000C11B414502D90320BDE8F883206A800722
:100D4000F4D5206A696820F44070084320621EB11F
:100D5000E06920F08050E0612878800705D5606860
:100D6000A96820F44040084360602878C00605D593
:100D70006068E96820F48000084360600020DBE7D9
:100D80000010024000700040400442422DE9F0474C
:100D90000F46050061D0434E306800F00700B842AE
:100DA00009D2306820F0070038433060306800F026
:100DB0000700B84251D128683B4C810712D5400743
:100DC00003D5606840F4E06060602878000703D5D0
:100DD000606840F4605060606068A96820F0F000CE
:100DE000084360602878C00728D06868012810D0C0
:100DF0002168022810D0890700292EDA616821F0C5
:100E0000030101436160FFF789FD804641F28839A3
:100E10000DE021688903EFE78901EDE7FFF77EFD2B
:100E2000A0EB0801494502D90320BDE8F0876068BE
:100E3000696800F00C00B0EB810FEFD1306800F072
:100E40000700B8420BD9306820F007003843306003
:100E5000306800F00700B84201D00120E5E72878AB
:100E6000400705D56068E96820F4E06008436060E9
:100E70002878000706D56068296920F4605040EAA8
:100E8000C100606000F058F86168084AC1F30311BE
:100E9000515CC8400649086006480068FFF750FEEC
:100EA0000020C2E70020024000100240E6270008B0
:100EB00020000020180000200F2202600C4A536816
:100EC00003F003034360536803F0F0038360536847
:100ED00003F4E063C36052684FF4E06303EAD202B4
:100EE00002610448006800F00700086070470000D5
:100EF000001002400020024004480549006849688B
:100F0000044AC1F30221515CC84070472000002010
:100F100000100240F62700080448054900684968A7
:100F2000044AC1F3C221515CC84070472000002030
:100F300000100240F62700080E4A51680E4801F0E2
:100F40000C03042B11D0082B0FD10C48C1F38343A1
:100F5000C903C05C0AD55168084AC1F34041921EDA
:100F6000515C054A5043B0FBF1F0704704494843D7
:100F7000704700000010024000127A00D6270008D7
:100F800000093D002DE9F84F040070D02078C04DD5
:100F9000C00749D06868C0F38100012807D068689D
:100FA000C0F38100022809D16868C00306D528680B
:100FB000800339D560680028E7D035E06068B0F577
:100FC000803F0BD010B1B0F5A02F11D0286820F4CD
:100FD00080302860286820F4802002E0286840F4EF
:100FE00080302860606890B1FFF798FC06460AE000
:100FF000286840F480202860F0E700BFFFF78EFCEF
:10100000801B642873D828688003F7D50CE0FFF7AD
:1010100085FC064605E000BFFFF780FC801B6428C6
:10102000F0D828688003F7D420789A4E80074FF0D4
:1010300001094FF0000839D5686810F00C0F07D08F
:101040006868C0F38100022809D16868C00306D42B
:101050002868800714D52069012808D110E020698C
:10106000B0B1C6F80090FFF759FC074605E00AE169
:10107000FFF754FCC01B0228C4D828688007F7D5A6
:101080002868616920F0F80040EAC10028600DE09E
:10109000C6F80080FFF742FC074604E0FFF73EFC7D
:1010A000C01B022823D828688007F7D420780007BF
:1010B0002CD57948A169D9B1C0F80090FFF72EFC72
:1010C000074604E0FFF72AFCC01B02280FD8686A15
:1010D0008007F7D571484FF4FA510068B0FBF1F082
:1010E000009000BF0098411E0091FAD20EE080E00F
:1010F000C0F80080FFF712FC074604E0FFF70EFC83
:10110000C01B022875D8686A8007F7D4207840078A
:1011100060D5E8690027C00008D4E86940F0805035
:10112000E861E869012700F0805000905C480168A0
:10113000C90513D40168834641F480710160FFF74B
:10114000EDFB824606E000BFFFF7E8FBA0EB0A00DC
:1011500064284ED8DBF80000C005F5D5E06801280A
:101160000AD008B1052813D0286A20F001002862AF
:10117000286A20F0040002E0286A40F0010028629A
:10118000E06841F2883B98B1FFF7C8FB82460BE06C
:10119000286A40F004002862EEE700BFFFF7BEFBBC
:1011A000A0EB0A0159455AD8286A8007F6D50CE009
:1011B000FFF7B4FB824605E0FFF7B0FBA0EB0A01A6
:1011C00059454CD8286A8007F6D41FB1E86920F049
:1011D0008050E861E06988B36968C1F38101022940
:1011E00044D00228C6F8608004D0FFF797FB04467D
:1011F00038E034E0FFF792FB074604E0FFF78EFB90
:10120000C01B02282BD828688001F7D4206AB0F5CB
:10121000803F05D16868A16820F400300843686009
:10122000D4E908010843696821F47411084368602F
:10123000C6F86090FFF772FB044606E025E000BFA9
:10124000FFF76CFB001B022809D828688001F7D53E
:101250001BE000BFFFF762FB001B022802D903203E
:10126000BDE8F88F28688001F4D40EE00128F7D09B
:101270006868226A00F48031914204D1616A00F406
:101280007010884201D00120EAE70020E8E7000062
:101290000010024000004242800442422000002030
:1012A000007000407047704710B5040003D094F8F8
:1012B0003D0010B107E0012010BD002084F83C0083
:1012C000204600F01EF8022084F83D00211D206811
:1012D00000F0BAFB012084F8460084F83E0084F850
:1012E0003F0084F8400084F8410084F8420084F80C
:1012F000430084F8440084F8450084F83D00002051
:1013000010BD704790F83D10012901D001207047B1
:10131000022180F83D100168CA6842F00102CA60EB
:1013200000680B49884208D0B0F1804F05D00949C8
:10133000884202D00849884204D1816801F007013F
:10134000062903D0016841F00101016000207047C7
:10135000002C0140000400400008004070472DE9C7
:10136000F04104460068C66805694FF00007A90708
:1013700013D5B10711D5F91E01610120207720682E
:1013800080698007204602D0FFF7E8FF04E000F004
:101390007EF8204600F07CF82777680716D570079E
:1013A00014D521686FF004000861022020772068BE
:1013B000806910F4407F204602D0FFF7CFFF04E0A1
:1013C00000F065F8204600F063F82777280715D568
:1013D000300713D521686FF00800086104202077DA
:1013E0002068C0698007204602D0FFF7B7FF04E0FD
:1013F00000F04DF8204600F04BF82777E80616D5A8
:10140000F00614D521686FF01000086108202077DD
:101410002068C06910F4407F204602D0FFF79EFF8D
:1014200004E000F034F8204600F032F82777E807AF
:1014300008D0F00706D021686FF00100086120464F
:1014400000F028F8280608D5300606D521686FF088
:10145000800008612046FFF725FF680608D5700662
:1014600006D521686FF040000861204600F01CF8A6
:10147000A8060AD5B00608D521686FF020000861DB
:101480002046BDE8F041FFF70EBFBDE8F081704790
:101490007047000000680349884201D1FFF736BB5E
:1014A000704700000004004070477047704700001C
:1014B000F8B5016804460868CA684B6910F00F0F58
:1014C0004FF0000559D003F0010602F4907737433E
:1014D00065D0C10705D0D10503D5616C41F001018C
:1014E0006164410705D5D90703D0616C41F0020161
:1014F0006164810705D5D90703D0616C41F004010F
:101500006164010707D502F02001314303D0616C0B
:1015100041F008016164616C00293AD0800604D56D
:10152000900602D5204600F0FAFA20684069616C06
:10153000C0F38010090700D460B3204600F0C8FA59
:1015400020684069400621D52068143050E8001F0B
:1015500021F0400140E80012002AF5D1E06BA8B16B
:101560006D494163E06BFFF79DF8002811D0E06BF7
:10157000416B01B0BDE8F040084783060FD59306E4
:101580000DD52046BDE8F84000F0C9BA2046FFF767
:101590008DFFF8BD2046FFF789FF6564F8BD266B17
:1015A0002023012E7CD1C6067AD5D60678D50868C8
:1015B0004868009048694FF00206400640D5E16B4C
:1015C000086840680004000CE8D0A28D8242E5D98A
:1015D000E085886920282DD020680C3050E8001F55
:1015E00021F4807140E80012002AF5D120681430FF
:1015F00050E8001F21F0010140E80012002AF5D157
:101600002068143050E8001F21F0400140E800122B
:10161000002AF5D184F84230256320680C3050E868
:10162000001F21F0100140E80012002AF5D1E06B04
:10163000FFF714F86663A08DE18D401A81B22AE0AD
:10164000A08DE18D401A81B2E08D0028A6D000293E
:10165000A4D022680C3252E8000F20F4907042E8C7
:101660000007002FF5D12068143050E8002F22F039
:10167000010240E80027002FF5D184F842302563AD
:1016800020680C3050E8002F22F0100240E80023C0
:10169000002BF5D166632046FFF707FFF8BDFFE793
:1016A00005062BD5150629D594F841002128F5D13A
:1016B000A068B0F5805F01D12069B0B1206A411CFB
:1016C0002162216800784860E08C401E0004000C14
:1016D000E084E3D12068C16821F08001C160206806
:1016E000C16841F04001C160D8E7206A0088C0F3BA
:1016F00008004860206A801C2062E5E74006CDD5DE
:101700005006CBD5CA68204622F04002CA6084F851
:10171000413000F076F8C1E7C11A000870B5040046
:1017200004D094F84100002510B106E0012070BDFE
:1017300084F84050204600F023F8242084F841002B
:101740002068C16821F40051C160204600F048FAC9
:101750002068016921F4904101612068416921F00C
:101760002A0141612068C16841F40051C16065648B
:10177000202084F8410084F842006563002070BD99
:1017800030B585B00024009401940294039400685D
:10179000184988422CD11848816941F480418161FF
:1017A000816901F480410491816941F00401816102
:1017B0008069124D00F0040004904FF40070009016
:1017C000022001900320039069462846FEF7B6FFE9
:1017D0002815CDE90004694628460294FEF7AEFFBD
:1017E000002205212520FFF729FA2520FFF718FA06
:1017F00005B030BD00380140001002400008014033
:1018000070477047FEE700003EB500241048009482
:10181000019402940D4984600160047304750125EC
:1018200005614FF460214460C161FEF75DFE08B1BF
:10183000FEF7D9FDCDE90045694605480294FEF75B
:10184000D5FD002801D0FEF7CEFD3EBD00240140AD
:10185000E002002010B5A4B01C221C496846FEF727
:10186000FFFC0021684600F051FA194C17491C2270
:1018700020601C3107A8FEF7F3FC002107A800F048
:1018800045FA124960601C2238310EA8FEF7E8FCC8
:1018900000210EA800F03AFA0C49A0601C22543135
:1018A00015A8FEF7DDFC002115A800F02FFA074966
:1018B000E0601C2270311CA8FEF7D2FC00211CA89D
:1018C00000F024FA206124B010BD00004827000871
:1018D00000000020094808B5816941F004018161D8
:1018E000816901F004010091816941F00801816181
:1018F000806900F00800009008BD00000010024060
:101900000D4810B50B4901600C49416000214FF4AE
:1019100080428160C0E9031241618161C16101625D
:10192000FFF702F8002803D0BDE81040FEF75BBDCA
:1019300010BD00000054004010030020A0860100EC
:101940000C4810B50A4901604FF4E13141600021B3
:1019500081600C22C160C0E904128161C161FFF79E
:10196000DDFE002803D0BDE81040FEF73CBD10BDF1
:101970000038014064030020FEE7FEE7012000F08C
:10198000B9F9FBE7012000F0B5F9FBE7012000F011
:10199000B1F9FBE7012000F0ADF9FBE7012000F011
:1019A000A9F9FBE710B5502080F31188BFF34F8FE2
:1019B000BFF36F8F00F000FE18B104494FF0805064
:1019C0000860002080F3118810BD000004ED00E0E5
:1019D00030B593B028216846FEF774FC14210AA89C
:1019E000FEF770FC002401200F940225049000955E
:1019F0001020119405901094129407946846FFF7F4
:101A0000C1FA08B172B6FEE70F20CDE90A040C94C2
:101A10000D9400210AA80E94FFF7B8F908B172B628
:101A2000FEE70FA80F951194FFF73AF9002801D0AF
:101A300072B6FEE713B030BD704700000148FFF7F3
:101A40008EBC0000AC030020F0B50268194B1A4CA4
:101A50001A4D4FF08047984205D0B84203D0A042BB
:101A600001D0A84203D122F070064A68324398425E
:101A700005D0B84203D0A04201D0A84203D122F43D
:101A80004074CA6822434C6922F0800222430260FB
:101A90008A68C2620A688262984201D10969016358
:101AA000012141610169C90703D0016921F00101E8
:101AB0000161F0BD002C014000040040000800401E
:101AC00010B5406A0021C185C184FFF7EFFC10BD4D
:101AD00001680C3151E8002F22F4907241E8002394
:101AE000002BF5D10168143151E8002F22F00102DA
:101AF00041E80023002BF5D1016B012909D10168D0
:101B00000C3151E8002F22F0100241E80023002B95
:101B1000F5D1202180F8421000210163704708B5FB
:101B200090F84210222901D0022008BD82684FF4AB
:101B300080539A4201D1016921B1816A9A421BD036
:101B40004AB10AE00268816A5268C2F308020A8058
:101B5000816A891C08E0026972B10268526802F069
:101B60007F020A70816A491C8162C18D491E090485
:101B7000090CC18503D01BE002685268F1E70168D7
:101B8000CA6822F02002CA600168CA6822F4807222
:101B9000CA6001684A6922F001024A61202180F886
:101BA000421000214163026B012A03D0FFF728FE97
:101BB000002008BD016301680C3151E8002F22F0BC
:101BC000100241E80023002BF5D101680A68D20613
:101BD00002D50A6849680091818DFFF766FCE7E746
:101BE00070B5044600680169E26821F44051114370
:101BF00001612169A0680843616908432168CA68D6
:101C000041F20C639A430243CA6020684169A269A9
:101C100021F44071114341611E492068884202D17C
:101C2000FFF77AF901E0FFF767F900EBC00101EB7C
:101C30000012606864218000B2FBF0F3B3FBF1F3A3
:101C40006FF018067343B2FBF0F5B2FBF0F605EB4C
:101C50008305322303EB0515B5FBF1F5B6FBF1F671
:101C600005F0F00505EB0615B2FBF0F6B2FBF0F05F
:101C7000B0FBF1F06FF01802504306EB800003EB6D
:101C80000010B0FBF1F0216800F00F0028448860DC
:101C900070BD0000003801400148FFF709BC00009A
:101CA00064030020FEE70907090E002804DB00F1A9
:101CB000E02080F80014704700F00F0000F1E020F1
:101CC00080F8141D7047FEF729FFFFF781FEFFF72C
:101CD00001FEFFF799FDFFF713FEFFF731FEFFF757
:101CE000B9FD00F00EF8FEE701460020842900D07F
:101CF000C81C704710B500B9012000F01FFB002080
:101D000010BD10B500F040FB002010BD7FB50D46A2
:101D100004464169B0F9080081B1A16971B1FFF7CA
:101D2000E3FFD4E905128DE80700D4E900102B4643
:101D3000226900F016FC039004B070BDFFF7D4FFD9
:101D400003A9CDE90001208A2B4682B2D4E9001014
:101D500000F0DAFB012801D00020EDE70398EBE763
:101D60002DE9F041184C0F460546E6682068001D35
:101D700000F01CFA38B9206890F82C100120884037
:101D8000216981432161681C07D137B12168BDE811
:101D9000F0410E48091D00F04DBA20683544B542A7
:101DA0004560216805D2A06BBDE8F041091D00F037
:101DB00029BA606B091D00F025FAA06A854200D29D
:101DC000A562BDE8F081000024000020D0040020BE
:101DD0002DE9F041054600F039FA2E4CA068401C70
:101DE000A06020682C4F10B1606940B32DE02560E1
:101DF000A068012829D1002606EB860007EB8000A9
:101E000000F0F2F9761C072EF6D323488C3000F050
:101E1000EBF92148A03000F0E7F91F48B43000F09A
:101E2000E3F91D48C83000F0DFF91B48DC3000F052
:101E3000DBF919488C3060631430A06305E020683A
:101E4000E96AC06A884200D82560606A401C606206
:101E5000E96A0120226988401043206101EB81007A
:101E600007EB8000291D00F0E5F900F00FFA60692A
:101E700000280CD02068E96AC06A884207D2074966
:101E80004FF080500860BFF34F8FBFF36F8FBDE8F6
:101E9000F081000024000020F403002004ED00E0A5
:101EA00010B5044690F8510058B101280CD0022812
:101EB0000FD0502080F31188BFF34F8FBFF36F8F87
:101EC000FEE7206B00F0F6F92046BDE8104000F078
:101ED000F1B910BD10484FF44061420706D0C01D53
:101EE0000D4920F00700411AC1F540610B4A00235B
:101EF0000144C2E900030839183A21F007011160D2
:101F00004B600B600B1AC0E9001393604FF0004068
:101F10005360506170470000E40400207800002006
:101F2000144E154CA6F1C8074FF08058DFF84C90BE
:101F300012E000BF00F08AF9F068C568281D00F0C3
:101F400035F9A068401EA0606068401E606000F027
:101F50009DF92846FFF7A4FF60680028EAD1386899
:101F60000128F9D9C9F80080BFF34F8FBFF36F8FF5
:101F7000F2E70000BC0400202400002004ED00E093
:101F80002DE9F0479A46DDE9098481466FF00303A5
:101F9000206B03EB82021044089E20F007077807AD
:101FA00007D0502080F31188BFF34F8FBFF36F8F9E
:101FB000FEE7002561B1002023180A5C83F8342075
:101FC0000A5C12B1401C1028F6D384F8435001E09B
:101FD00084F83450072E00D30626E662C4E9116562
:101FE000201D00F00CF904F1180000F008F924613C
:101FF000C6F107006462A061E56484F8505052465F
:102000004946384600F0C0F82060B8F1000F01D012
:10201000C8F80040BDE8F08730B5114900E011462E
:102020000A688242FBD34B685C18844203D1406843
:1020300018444860084643681C18944209D1084C6B
:10204000183C2468A24209D052681A4442600A68C7
:1020500012680260814200D0086030BD0460F9E778
:10206000780000200648416B096829B1416BC968B6
:10207000C9684968816270474FF0FF31FAE7000094
:102080002400002008484068401C4FF0500080F3B6
:10209000118804D0BFF34F8FBFF36F8FFEE7BFF3FC
:1020A0004F8FBFF36F8FFEE7800000202DE9F041D6
:1020B0000546002700F09EF9324E306808B9FFF758
:1020C00009FF706905424ED1C5B3083568070ED0C7
:1020D00005F00700C0F108000544680707D050204C
:1020E00080F31188BFF34F8FBFF36F8FFEE72DB3DF
:1020F0007068854237D82348183001460C6801E0E3
:1021000020460C466168A94202D221680029F7D115
:1021100031688C4227D00768216801606068083701
:10212000411B10290FD96019420708D0502080F3B5
:102130001188BFF34F8FBFF36F8FFEE713E041604D
:102140006560FFF769FF61687068401A7060B26887
:10215000904200D2B060706901430020C4E90001E0
:10216000F068401CF06000F08DFA780707D050202E
:1021700080F31188BFF34F8FBFF36F8FFEE73846B0
:10218000BDE8F0816000002010B5031F4FF080749F
:102190001C601B1F21F001011960191F024B0B600D
:1021A000143940380A6010BD85200008D0E901329A
:1021B00001699A60D0E901235A604A68824201D1DC
:1021C00082684A60002202610868401E0860086850
:1021D00070470000034B036003F154000860802047
:1021E000106070478C00002000F108014FF0FF32B2
:1021F000C0E90112C1600161002101607047002146
:102200000161704730B50B685A1C02D000F108021A
:1022100002E0026904E02246546825689D42FAD92A
:1022200053684B6099608A60516008610168491C7D
:10223000016030BD42684A6093688B609368596062
:10224000916008610168491C01607047502080F36B
:102250001188BFF34F8FBFF36F8F0A494868401C46
:10226000486001280CD10848006810F0FF0F07D023
:10227000502080F31188BFF34F8FBFF36F8FFEE7BD
:10228000704700008000002004ED00E00849486825
:1022900028B1401E486001D180F31188704750205A
:1022A00080F31188BFF34F8FBFF36F8FFEE70000FD
:1022B0008000002070B500282AD0164DA0F1080437
:1022C00060686969084207D1502080F31188BFF324
:1022D0004F8FBFF36F8FFEE722683AB1502080F333
:1022E0001188BFF34F8FBFF36F8FFEE788436060A5
:1022F00000F080F860686968084468602046FFF76D
:102300008BFE2869401C2861BDE8704000F0BAB916
:1023100070BD0000600000204FF0E020002101614E
:10232000816105494FF47A720968B1FBF2F1491EE7
:1023300041610721016170472000002010B50200B3
:1023400014D00F48006B38B1502080F31188BFF3D0
:102350004F8FBFF36F8FFEE700F04CF8002110465F
:10236000FFF7FEFC00F08EF9002807D105494FF079
:1023700080500860BFF34F8FBFF36F8F10BD000018
:102380002400002004ED00E010B586B00024039482
:1023900005AA04A903A80494FFF71CFFDDE90301C3
:1023A0000094CDE9011000230EA11048059A00F019
:1023B000D8F80F490028C86211D0502080F3118846
:1023C000BFF34F8FBFF36F8F4FF0FF308862012054
:1023D0004861CC6006B0BDE8104000F041B806B0DE
:1023E00010BD000049444C4500000000211F0008BA
:1023F000240000200248016B491C01637047000063
:10240000240000201448016B11B10121C161704703
:102410000021C1610169B1FA81F1C1F11F0101EB34
:1024200081020E4951F822306BB101EB820101F1BA
:1024300008034A6852684A609A4201D152684A6069
:10244000D16801607047502080F31188BFF34F8F2F
:10245000BFF36F8FFEE7000024000020F40300208C
:102460001CB5264908780190FF20087008788DF87F
:1024700000009DF800009DF8002000F0F000904260
:1024800007D0502080F31188BFF34F8FBFF36F8FB9
:10249000FEE79DF800001A4C00F050002070072065
:1024A000A06005E09DF8002052008DF80020401E3D
:1024B0009DF800201206F5D4A060032807D0502014
:1024C00080F31188BFF34F8FBFF36F8FFEE74FF498
:1024D0004070A060019808700A48016841F47001DA
:1024E0000160016841F070410160FFF715FF0020B5
:1024F0006060FDF75BFE00201CBD000000E400E012
:102500008000002020ED00E02DE9FF5F8346DDE93B
:102510000E87994616468A469000FFF7C7FD0500CC
:102520001CD05420FFF7C2FD040014D00020256306
:1025300084F85100CDE90240CDE900874B46324690
:1025400051465846FFF71CFD2046FFF741FC01208D
:1025500004B0BDE8F09F2846FFF7ACFE4FF0FF3017
:10256000F6E7F0B585B0DDE90B640A9DA6B1DCB1F4
:10257000542700972663022684F85160002604AF92
:10258000CDE90246CDE90057FFF7FAFC2046FFF7F8
:102590001FFC049805B0F0BD502080F31188BFF3F4
:1025A0004F8FBFF36F8FFEE7502080F31188BFF38A
:1025B0004F8FBFF36F8FFEE72DE9F0412F4C0026C0
:1025C000206B28B1A069401CA0613046BDE8F081B5
:1025D000E5686D1CE56013D1606B006838B1502070
:1025E00080F31188BFF34F8FBFF36F8FFEE7606BEF
:1025F000A16B6163A063206A401C2062FFF732FD7B
:10260000A06ADFF87C80854209D3606B0068A0B1C6
:10261000606BC068C7687868854211D2A062206884
:10262000C06A00EB800158F82100012800D901267A
:10263000E0690028C9D00126C7E74FF0FF30EDE779
:10264000381DFFF7B3FDB86A18B107F11800FFF79E
:10265000ADFDF96A0120226988401043206101EB39
:10266000810108EB8100391DFFF7E4FDF86A21685C
:10267000C96A8842C9D30126C7E7000024000020A8
:10268000F40300202DE9F0472C4D00242746286B49
:1026900038B1FFF7DBFD286B401E2863286B40B183
:1026A00046E0502080F31188BFF34F8FBFF36F8F48
:1026B000FEE7A968224E0120D1B3A6F1B4098046F5
:1026C0003068E8B1F068C46804F11800FFF76EFDE7
:1026D000201DFFF76BFDE06A2A6908FA00F111433B
:1026E000296100EB800109EB8100211DFFF7A2FDAC
:1026F000E06A2968C96A8842E2D3C5F81C80DFE72E
:102700000CB1FFF7AFFCAC6944B14646FFF754FF8C
:1027100000B1EE61641EF9D10020A861E86938B10A
:102720000849012738070860BFF34F8FBFF36F8F49
:10273000FFF7ACFD3846BDE8F0870000240000201C
:10274000A804002004ED00E0402800087D190008DE
:1027500000000000000000008000000000000000F9
:10276000000000000028000885190008FDFF000097
:1027700000000000800000000000000000000000D9
:102780001028000895190008FDFF00000000000057
:102790008000000000000000000000002028000869
:1027A0008D190008FDFF00000000000080000000FF
:1027B0000000000000000000302800089D190008FB
:1027C000FDFF00000000000080000000000000008D
:1027D00000000000010202030405060708090A0BB5
:1027E0000C0D0E0F10100000000000000000010290
:1027F00003040607080900000000010203040000AA
:1028000053746172745461736B5F44485432320084
:1028100053746172745461736B5F4D5132000000E8
:1028200053746172745461736B5F4C4344000000D5
:1028300053746172745461736B5F5541525400005C
:1028400064656661756C745461736B006C28000874
:10285000000000208C00000028010008F828000873
:102860008C000020BC16000044010008000000009D
:102870000000000000000000000000000000000058
:1028800001000000100000000000000000127A00AB
:102890000000000000000000000000000000000038
:1028A0000000000000000000000000000000000028
:1028B0000000000000000000000000000000000018
:1028C0000000000000000000000000000000000008
:1028D00000000000000000000000000000000000F8
:1028E00000000000000000000000000000000000E8
:0828F000AAAAAAAA0000000038
:04000005080000ED02
:00000001FF
